:0408E3000208000007
:1008C600E4FFFEE4FDFC0DBD00010CBC75F8BD3077
:0C08D600F50FBF00010EEF64034E70E749
:0108E20022F3
:10088C0020A015E50945087007F5087509018005D4
:10089C00E4F508F50930A0FDE5094508700E7590E2
:1008AC00F01208C675900F1208C680D47590FF120E
:0A08BC0008C6E4F5901208C680C6D5
:03000000020800F3
:0C080000787FE4F6D8FD758109020847F6
:10080C0002088CE493A3F8E493A34003F68001F26E
:10081C0008DFF48029E493A3F85407240CC8C333ED
:10082C00C4540F4420C8834004F456800146F6DFBC
:10083C00E4800B01020408102040809008E3E47E61
:10084C00019360BCA3FF543F30E509541FFEE493B1
:10085C00A360010ECF54C025E060A840B8E493A378
:10086C00FAE493A3F8E493A3C8C582C8CAC583CAA3
:10087C00F0A3C8C582C8CAC583CADFE9DEE780BE5B
:0108E7000010
:00000001FF
